{
  "abi": [
    {
      "inputs": [],
      "stateMutability": "nonpayable",
      "type": "constructor"
    },
    {
      "inputs": [],
      "name": "enter",
      "outputs": [],
      "stateMutability": "payable",
      "type": "function"
    },
    {
      "inputs": [],
      "name": "getPlayers",
      "outputs": [
        {
          "internalType": "address payable[]",
          "name": "",
          "type": "address[]"
        }
      ],
      "stateMutability": "view",
      "type": "function"
    },
    {
      "inputs": [],
      "name": "manager",
      "outputs": [
        {
          "internalType": "address",
          "name": "",
          "type": "address"
        }
      ],
      "stateMutability": "view",
      "type": "function"
    },
    {
      "inputs": [],
      "name": "pickWinner",
      "outputs": [],
      "stateMutability": "nonpayable",
      "type": "function"
    }
  ],
  "devdoc": {
    "kind": "dev",
    "methods": {},
    "version": 1
  },
  "evm": {
    "assembly": "    /* \"Lottery.sol\":61:1155  contract Lottery {... */\n  mstore(0x40, 0x80)\n    /* \"Lottery.sol\":148:201  constructor() {... */\n  callvalue\n  dup1\n  iszero\n  tag_1\n  jumpi\n  0x00\n  dup1\n  revert\ntag_1:\n  pop\n    /* \"Lottery.sol\":183:193  msg.sender */\n  caller\n    /* \"Lottery.sol\":173:180  manager */\n  0x00\n  dup1\n    /* \"Lottery.sol\":173:193  manager = msg.sender */\n  0x0100\n  exp\n  dup2\n  sload\n  dup2\n  0xffffffffffffffffffffffffffffffffffffffff\n  mul\n  not\n  and\n  swap1\n  dup4\n  0xffffffffffffffffffffffffffffffffffffffff\n  and\n  mul\n  or\n  swap1\n  sstore\n  pop\n    /* \"Lottery.sol\":61:1155  contract Lottery {... */\n  dataSize(sub_0)\n  dup1\n  dataOffset(sub_0)\n  0x00\n  codecopy\n  0x00\n  return\nstop\n\nsub_0: assembly {\n        /* \"Lottery.sol\":61:1155  contract Lottery {... */\n      mstore(0x40, 0x80)\n      jumpi(tag_1, lt(calldatasize, 0x04))\n      shr(0xe0, calldataload(0x00))\n      dup1\n      0x481c6a75\n      eq\n      tag_2\n      jumpi\n      dup1\n      0x5d495aea\n      eq\n      tag_3\n      jumpi\n      dup1\n      0x8b5b9ccc\n      eq\n      tag_4\n      jumpi\n      dup1\n      0xe97dcb62\n      eq\n      tag_5\n      jumpi\n    tag_1:\n      0x00\n      dup1\n      revert\n        /* \"Lottery.sol\":85:107  address public manager */\n    tag_2:\n      callvalue\n      dup1\n      iszero\n      tag_6\n      jumpi\n      0x00\n      dup1\n      revert\n    tag_6:\n      pop\n      tag_7\n      tag_8\n      jump\t// in\n    tag_7:\n      mload(0x40)\n      tag_9\n      swap2\n      swap1\n      tag_10\n      jump\t// in\n    tag_9:\n      mload(0x40)\n      dup1\n      swap2\n      sub\n      swap1\n      return\n        /* \"Lottery.sol\":787:1020  function pickWinner() public onlyManager {... */\n    tag_3:\n      callvalue\n      dup1\n      iszero\n      tag_11\n      jumpi\n      0x00\n      dup1\n      revert\n    tag_11:\n      pop\n      tag_12\n      tag_13\n      jump\t// in\n    tag_12:\n      stop\n        /* \"Lottery.sol\":677:779  function getPlayers() public view returns (address payable[] memory) {... */\n    tag_4:\n      callvalue\n      dup1\n      iszero\n      tag_14\n      jumpi\n      0x00\n      dup1\n      revert\n    tag_14:\n      pop\n      tag_15\n      tag_16\n      jump\t// in\n    tag_15:\n      mload(0x40)\n      tag_17\n      swap2\n      swap1\n      tag_18\n      jump\t// in\n    tag_17:\n      mload(0x40)\n      dup1\n      swap2\n      sub\n      swap1\n      return\n        /* \"Lottery.sol\":209:424  function enter() public payable {... */\n    tag_5:\n      tag_19\n      tag_20\n      jump\t// in\n    tag_19:\n      stop\n        /* \"Lottery.sol\":85:107  address public manager */\n    tag_8:\n      0x00\n      dup1\n      sload\n      swap1\n      0x0100\n      exp\n      swap1\n      div\n      0xffffffffffffffffffffffffffffffffffffffff\n      and\n      dup2\n      jump\t// out\n        /* \"Lottery.sol\":787:1020  function pickWinner() public onlyManager {... */\n    tag_13:\n        /* \"Lottery.sol\":1084:1091  manager */\n      0x00\n      dup1\n      sload\n      swap1\n      0x0100\n      exp\n      swap1\n      div\n      0xffffffffffffffffffffffffffffffffffffffff\n      and\n        /* \"Lottery.sol\":1070:1091  msg.sender == manager */\n      0xffffffffffffffffffffffffffffffffffffffff\n      and\n        /* \"Lottery.sol\":1070:1080  msg.sender */\n      caller\n        /* \"Lottery.sol\":1070:1091  msg.sender == manager */\n      0xffffffffffffffffffffffffffffffffffffffff\n      and\n      eq\n        /* \"Lottery.sol\":1062:1132  require(msg.sender == manager, \"Only manager can call this function \") */\n      tag_22\n      jumpi\n      mload(0x40)\n      0x08c379a000000000000000000000000000000000000000000000000000000000\n      dup2\n      mstore\n      0x04\n      add\n      tag_23\n      swap1\n      tag_24\n      jump\t// in\n    tag_23:\n      mload(0x40)\n      dup1\n      swap2\n      sub\n      swap1\n      revert\n    tag_22:\n        /* \"Lottery.sol\":839:851  address self */\n      0x00\n        /* \"Lottery.sol\":862:866  this */\n      address\n        /* \"Lottery.sol\":839:867  address self = address(this) */\n      swap1\n      pop\n        /* \"Lottery.sol\":878:891  uint256 index */\n      0x00\n        /* \"Lottery.sol\":905:912  players */\n      0x01\n        /* \"Lottery.sol\":905:919  players.length */\n      dup1\n      sload\n      swap1\n      pop\n        /* \"Lottery.sol\":894:902  random() */\n      tag_26\n        /* \"Lottery.sol\":894:900  random */\n      tag_27\n        /* \"Lottery.sol\":894:902  random() */\n      jump\t// in\n    tag_26:\n        /* \"Lottery.sol\":894:919  random() % players.length */\n      tag_28\n      swap2\n      swap1\n      tag_29\n      jump\t// in\n    tag_28:\n        /* \"Lottery.sol\":878:919  uint256 index = random() % players.length */\n      swap1\n      pop\n        /* \"Lottery.sol\":930:937  players */\n      0x01\n        /* \"Lottery.sol\":938:943  index */\n      dup2\n        /* \"Lottery.sol\":930:944  players[index] */\n      dup2\n      sload\n      dup2\n      lt\n      tag_30\n      jumpi\n      tag_31\n      tag_32\n      jump\t// in\n    tag_31:\n    tag_30:\n      swap1\n      0x00\n      mstore\n      keccak256(0x00, 0x20)\n      add\n      0x00\n      swap1\n      sload\n      swap1\n      0x0100\n      exp\n      swap1\n      div\n      0xffffffffffffffffffffffffffffffffffffffff\n      and\n        /* \"Lottery.sol\":930:953  players[index].transfer */\n      0xffffffffffffffffffffffffffffffffffffffff\n      and\n        /* \"Lottery.sol\":930:967  players[index].transfer(self.balance) */\n      0x08fc\n        /* \"Lottery.sol\":954:958  self */\n      dup4\n        /* \"Lottery.sol\":954:966  self.balance */\n      0xffffffffffffffffffffffffffffffffffffffff\n      and\n      balance\n        /* \"Lottery.sol\":930:967  players[index].transfer(self.balance) */\n      swap1\n      dup2\n      iszero\n      mul\n      swap1\n      mload(0x40)\n      0x00\n      mload(0x40)\n      dup1\n      dup4\n      sub\n      dup2\n      dup6\n      dup9\n      dup9\n      call\n      swap4\n      pop\n      pop\n      pop\n      pop\n      iszero\n      dup1\n      iszero\n      tag_35\n      jumpi\n      returndatasize\n      0x00\n      dup1\n      returndatacopy\n      revert(0x00, returndatasize)\n    tag_35:\n      pop\n        /* \"Lottery.sol\":1010:1011  0 */\n      0x00\n        /* \"Lottery.sol\":988:1012  new address payable[](0) */\n      0xffffffffffffffff\n      dup2\n      gt\n      iszero\n      tag_36\n      jumpi\n      tag_37\n      tag_38\n      jump\t// in\n    tag_37:\n    tag_36:\n      mload(0x40)\n      swap1\n      dup1\n      dup3\n      mstore\n      dup1\n      0x20\n      mul\n      0x20\n      add\n      dup3\n      add\n      0x40\n      mstore\n      dup1\n      iszero\n      tag_39\n      jumpi\n      dup2\n      0x20\n      add\n      0x20\n      dup3\n      mul\n      dup1\n      calldatasize\n      dup4\n      calldatacopy\n      dup1\n      dup3\n      add\n      swap2\n      pop\n      pop\n      swap1\n      pop\n    tag_39:\n      pop\n        /* \"Lottery.sol\":978:985  players */\n      0x01\n        /* \"Lottery.sol\":978:1012  players = new address payable[](0) */\n      swap1\n      dup1\n      mload\n      swap1\n      0x20\n      add\n      swap1\n      tag_40\n      swap3\n      swap2\n      swap1\n      tag_41\n      jump\t// in\n    tag_40:\n      pop\n        /* \"Lottery.sol\":828:1020  {... */\n      pop\n      pop\n        /* \"Lottery.sol\":787:1020  function pickWinner() public onlyManager {... */\n      jump\t// out\n        /* \"Lottery.sol\":677:779  function getPlayers() public view returns (address payable[] memory) {... */\n    tag_16:\n        /* \"Lottery.sol\":720:744  address payable[] memory */\n      0x60\n        /* \"Lottery.sol\":764:771  players */\n      0x01\n        /* \"Lottery.sol\":757:771  return players */\n      dup1\n      sload\n      dup1\n      0x20\n      mul\n      0x20\n      add\n      mload(0x40)\n      swap1\n      dup2\n      add\n      0x40\n      mstore\n      dup1\n      swap3\n      swap2\n      swap1\n      dup2\n      dup2\n      mstore\n      0x20\n      add\n      dup3\n      dup1\n      sload\n      dup1\n      iszero\n      tag_43\n      jumpi\n      0x20\n      mul\n      dup3\n      add\n      swap2\n      swap1\n      0x00\n      mstore\n      keccak256(0x00, 0x20)\n      swap1\n    tag_44:\n      dup2\n      0x00\n      swap1\n      sload\n      swap1\n      0x0100\n      exp\n      swap1\n      div\n      0xffffffffffffffffffffffffffffffffffffffff\n      and\n      0xffffffffffffffffffffffffffffffffffffffff\n      and\n      dup2\n      mstore\n      0x20\n      add\n      swap1\n      0x01\n      add\n      swap1\n      dup1\n      dup4\n      gt\n      tag_44\n      jumpi\n    tag_43:\n      pop\n      pop\n      pop\n      pop\n      pop\n      swap1\n      pop\n        /* \"Lottery.sol\":677:779  function getPlayers() public view returns (address payable[] memory) {... */\n      swap1\n      jump\t// out\n        /* \"Lottery.sol\":209:424  function enter() public payable {... */\n    tag_20:\n        /* \"Lottery.sol\":286:296  0.01 ether */\n      0x2386f26fc10000\n        /* \"Lottery.sol\":274:283  msg.value */\n      callvalue\n        /* \"Lottery.sol\":274:296  msg.value > 0.01 ether */\n      gt\n        /* \"Lottery.sol\":252:372  require(... */\n      tag_46\n      jumpi\n      mload(0x40)\n      0x08c379a000000000000000000000000000000000000000000000000000000000\n      dup2\n      mstore\n      0x04\n      add\n      tag_47\n      swap1\n      tag_48\n      jump\t// in\n    tag_47:\n      mload(0x40)\n      dup1\n      swap2\n      sub\n      swap1\n      revert\n    tag_46:\n        /* \"Lottery.sol\":383:390  players */\n      0x01\n        /* \"Lottery.sol\":404:414  msg.sender */\n      caller\n        /* \"Lottery.sol\":383:416  players.push(payable(msg.sender)) */\n      swap1\n      dup1\n      0x01\n      dup2\n      sload\n      add\n      dup1\n      dup3\n      sstore\n      dup1\n      swap2\n      pop\n      pop\n      0x01\n      swap1\n      sub\n      swap1\n      0x00\n      mstore\n      keccak256(0x00, 0x20)\n      add\n      0x00\n      swap1\n      swap2\n      swap1\n      swap2\n      swap1\n      swap2\n      0x0100\n      exp\n      dup2\n      sload\n      dup2\n      0xffffffffffffffffffffffffffffffffffffffff\n      mul\n      not\n      and\n      swap1\n      dup4\n      0xffffffffffffffffffffffffffffffffffffffff\n      and\n      mul\n      or\n      swap1\n      sstore\n      pop\n        /* \"Lottery.sol\":209:424  function enter() public payable {... */\n      jump\t// out\n        /* \"Lottery.sol\":432:669  function random() private view returns (uint256) {... */\n    tag_27:\n        /* \"Lottery.sol\":472:479  uint256 */\n      0x00\n        /* \"Lottery.sol\":587:603  block.difficulty */\n      difficulty\n        /* \"Lottery.sol\":605:617  block.number */\n      number\n        /* \"Lottery.sol\":619:626  players */\n      0x01\n        /* \"Lottery.sol\":570:627  abi.encodePacked(block.difficulty, block.number, players) */\n      add(0x20, mload(0x40))\n      tag_51\n      swap4\n      swap3\n      swap2\n      swap1\n      tag_52\n      jump\t// in\n    tag_51:\n      mload(0x40)\n      0x20\n      dup2\n      dup4\n      sub\n      sub\n      dup2\n      mstore\n      swap1\n      0x40\n      mstore\n        /* \"Lottery.sol\":538:646  keccak256(... */\n      dup1\n      mload\n      swap1\n      0x20\n      add\n      keccak256\n        /* \"Lottery.sol\":512:661  uint256(... */\n      0x00\n      shr\n        /* \"Lottery.sol\":492:661  return... */\n      swap1\n      pop\n        /* \"Lottery.sol\":432:669  function random() private view returns (uint256) {... */\n      swap1\n      jump\t// out\n    tag_41:\n      dup3\n      dup1\n      sload\n      dup3\n      dup3\n      sstore\n      swap1\n      0x00\n      mstore\n      keccak256(0x00, 0x20)\n      swap1\n      dup2\n      add\n      swap3\n      dup3\n      iszero\n      tag_53\n      jumpi\n      swap2\n      0x20\n      mul\n      dup3\n      add\n    tag_54:\n      dup3\n      dup2\n      gt\n      iszero\n      tag_55\n      jumpi\n      dup3\n      mload\n      dup3\n      exp(0x0100, 0x00)\n      dup2\n      sload\n      dup2\n      0xffffffffffffffffffffffffffffffffffffffff\n      mul\n      not\n      and\n      swap1\n      dup4\n      0xffffffffffffffffffffffffffffffffffffffff\n      and\n      mul\n      or\n      swap1\n      sstore\n      pop\n      swap2\n      0x20\n      add\n      swap2\n      swap1\n      0x01\n      add\n      swap1\n      jump(tag_54)\n    tag_55:\n    tag_53:\n      pop\n      swap1\n      pop\n      tag_56\n      swap2\n      swap1\n      tag_57\n      jump\t// in\n    tag_56:\n      pop\n      swap1\n      jump\t// out\n    tag_57:\n    tag_58:\n      dup1\n      dup3\n      gt\n      iszero\n      tag_59\n      jumpi\n      0x00\n      dup2\n      0x00\n      swap1\n      sstore\n      pop\n      0x01\n      add\n      jump(tag_58)\n    tag_59:\n      pop\n      swap1\n      jump\t// out\n        /* \"#utility.yul\":7:133   */\n    tag_60:\n        /* \"#utility.yul\":44:51   */\n      0x00\n        /* \"#utility.yul\":84:126   */\n      0xffffffffffffffffffffffffffffffffffffffff\n        /* \"#utility.yul\":77:82   */\n      dup3\n        /* \"#utility.yul\":73:127   */\n      and\n        /* \"#utility.yul\":62:127   */\n      swap1\n      pop\n        /* \"#utility.yul\":7:133   */\n      swap2\n      swap1\n      pop\n      jump\t// out\n        /* \"#utility.yul\":139:235   */\n    tag_61:\n        /* \"#utility.yul\":176:183   */\n      0x00\n        /* \"#utility.yul\":205:229   */\n      tag_94\n        /* \"#utility.yul\":223:228   */\n      dup3\n        /* \"#utility.yul\":205:229   */\n      tag_60\n      jump\t// in\n    tag_94:\n        /* \"#utility.yul\":194:229   */\n      swap1\n      pop\n        /* \"#utility.yul\":139:235   */\n      swap2\n      swap1\n      pop\n      jump\t// out\n        /* \"#utility.yul\":241:359   */\n    tag_62:\n        /* \"#utility.yul\":328:352   */\n      tag_96\n        /* \"#utility.yul\":346:351   */\n      dup2\n        /* \"#utility.yul\":328:352   */\n      tag_61\n      jump\t// in\n    tag_96:\n        /* \"#utility.yul\":323:326   */\n      dup3\n        /* \"#utility.yul\":316:353   */\n      mstore\n        /* \"#utility.yul\":241:359   */\n      pop\n      pop\n      jump\t// out\n        /* \"#utility.yul\":365:587   */\n    tag_10:\n        /* \"#utility.yul\":458:462   */\n      0x00\n        /* \"#utility.yul\":496:498   */\n      0x20\n        /* \"#utility.yul\":485:494   */\n      dup3\n        /* \"#utility.yul\":481:499   */\n      add\n        /* \"#utility.yul\":473:499   */\n      swap1\n      pop\n        /* \"#utility.yul\":509:580   */\n      tag_98\n        /* \"#utility.yul\":577:578   */\n      0x00\n        /* \"#utility.yul\":566:575   */\n      dup4\n        /* \"#utility.yul\":562:579   */\n      add\n        /* \"#utility.yul\":553:559   */\n      dup5\n        /* \"#utility.yul\":509:580   */\n      tag_62\n      jump\t// in\n    tag_98:\n        /* \"#utility.yul\":365:587   */\n      swap3\n      swap2\n      pop\n      pop\n      jump\t// out\n        /* \"#utility.yul\":593:715   */\n    tag_63:\n        /* \"#utility.yul\":668:674   */\n      0x00\n        /* \"#utility.yul\":702:707   */\n      dup2\n        /* \"#utility.yul\":696:708   */\n      mload\n        /* \"#utility.yul\":686:708   */\n      swap1\n      pop\n        /* \"#utility.yul\":593:715   */\n      swap2\n      swap1\n      pop\n      jump\t// out\n        /* \"#utility.yul\":721:913   */\n    tag_64:\n        /* \"#utility.yul\":828:839   */\n      0x00\n        /* \"#utility.yul\":862:868   */\n      dup3\n        /* \"#utility.yul\":857:860   */\n      dup3\n        /* \"#utility.yul\":850:869   */\n      mstore\n        /* \"#utility.yul\":902:906   */\n      0x20\n        /* \"#utility.yul\":897:900   */\n      dup3\n        /* \"#utility.yul\":893:907   */\n      add\n        /* \"#utility.yul\":878:907   */\n      swap1\n      pop\n        /* \"#utility.yul\":721:913   */\n      swap3\n      swap2\n      pop\n      pop\n      jump\t// out\n        /* \"#utility.yul\":919:1059   */\n    tag_65:\n        /* \"#utility.yul\":994:998   */\n      0x00\n        /* \"#utility.yul\":1017:1020   */\n      dup2\n        /* \"#utility.yul\":1009:1020   */\n      swap1\n      pop\n        /* \"#utility.yul\":1047:1051   */\n      0x20\n        /* \"#utility.yul\":1042:1045   */\n      dup3\n        /* \"#utility.yul\":1038:1052   */\n      add\n        /* \"#utility.yul\":1030:1052   */\n      swap1\n      pop\n        /* \"#utility.yul\":919:1059   */\n      swap2\n      swap1\n      pop\n      jump\t// out\n        /* \"#utility.yul\":1065:1169   */\n    tag_66:\n        /* \"#utility.yul\":1110:1117   */\n      0x00\n        /* \"#utility.yul\":1139:1163   */\n      tag_103\n        /* \"#utility.yul\":1157:1162   */\n      dup3\n        /* \"#utility.yul\":1139:1163   */\n      tag_60\n      jump\t// in\n    tag_103:\n        /* \"#utility.yul\":1128:1163   */\n      swap1\n      pop\n        /* \"#utility.yul\":1065:1169   */\n      swap2\n      swap1\n      pop\n      jump\t// out\n        /* \"#utility.yul\":1175:1307   */\n    tag_67:\n        /* \"#utility.yul\":1268:1300   */\n      tag_105\n        /* \"#utility.yul\":1294:1299   */\n      dup2\n        /* \"#utility.yul\":1268:1300   */\n      tag_66\n      jump\t// in\n    tag_105:\n        /* \"#utility.yul\":1263:1266   */\n      dup3\n        /* \"#utility.yul\":1256:1301   */\n      mstore\n        /* \"#utility.yul\":1175:1307   */\n      pop\n      pop\n      jump\t// out\n        /* \"#utility.yul\":1313:1524   */\n    tag_68:\n        /* \"#utility.yul\":1398:1408   */\n      0x00\n        /* \"#utility.yul\":1419:1481   */\n      tag_107\n        /* \"#utility.yul\":1477:1480   */\n      dup4\n        /* \"#utility.yul\":1469:1475   */\n      dup4\n        /* \"#utility.yul\":1419:1481   */\n      tag_67\n      jump\t// in\n    tag_107:\n        /* \"#utility.yul\":1513:1517   */\n      0x20\n        /* \"#utility.yul\":1508:1511   */\n      dup4\n        /* \"#utility.yul\":1504:1518   */\n      add\n        /* \"#utility.yul\":1490:1518   */\n      swap1\n      pop\n        /* \"#utility.yul\":1313:1524   */\n      swap3\n      swap2\n      pop\n      pop\n      jump\t// out\n        /* \"#utility.yul\":1530:1651   */\n    tag_69:\n        /* \"#utility.yul\":1608:1612   */\n      0x00\n        /* \"#utility.yul\":1640:1644   */\n      0x20\n        /* \"#utility.yul\":1635:1638   */\n      dup3\n        /* \"#utility.yul\":1631:1645   */\n      add\n        /* \"#utility.yul\":1623:1645   */\n      swap1\n      pop\n        /* \"#utility.yul\":1530:1651   */\n      swap2\n      swap1\n      pop\n      jump\t// out\n        /* \"#utility.yul\":1703:2499   */\n    tag_70:\n        /* \"#utility.yul\":1838:1841   */\n      0x00\n        /* \"#utility.yul\":1867:1929   */\n      tag_110\n        /* \"#utility.yul\":1923:1928   */\n      dup3\n        /* \"#utility.yul\":1867:1929   */\n      tag_63\n      jump\t// in\n    tag_110:\n        /* \"#utility.yul\":1945:2039   */\n      tag_111\n        /* \"#utility.yul\":2032:2038   */\n      dup2\n        /* \"#utility.yul\":2027:2030   */\n      dup6\n        /* \"#utility.yul\":1945:2039   */\n      tag_64\n      jump\t// in\n    tag_111:\n        /* \"#utility.yul\":1938:2039   */\n      swap4\n      pop\n        /* \"#utility.yul\":2063:2127   */\n      tag_112\n        /* \"#utility.yul\":2121:2126   */\n      dup4\n        /* \"#utility.yul\":2063:2127   */\n      tag_65\n      jump\t// in\n    tag_112:\n        /* \"#utility.yul\":2150:2157   */\n      dup1\n        /* \"#utility.yul\":2181:2182   */\n      0x00\n        /* \"#utility.yul\":2166:2474   */\n    tag_113:\n        /* \"#utility.yul\":2191:2197   */\n      dup4\n        /* \"#utility.yul\":2188:2189   */\n      dup2\n        /* \"#utility.yul\":2185:2198   */\n      lt\n        /* \"#utility.yul\":2166:2474   */\n      iszero\n      tag_115\n      jumpi\n        /* \"#utility.yul\":2267:2273   */\n      dup2\n        /* \"#utility.yul\":2261:2274   */\n      mload\n        /* \"#utility.yul\":2294:2373   */\n      tag_116\n        /* \"#utility.yul\":2369:2372   */\n      dup9\n        /* \"#utility.yul\":2354:2367   */\n      dup3\n        /* \"#utility.yul\":2294:2373   */\n      tag_68\n      jump\t// in\n    tag_116:\n        /* \"#utility.yul\":2287:2373   */\n      swap8\n      pop\n        /* \"#utility.yul\":2396:2464   */\n      tag_117\n        /* \"#utility.yul\":2457:2463   */\n      dup4\n        /* \"#utility.yul\":2396:2464   */\n      tag_69\n      jump\t// in\n    tag_117:\n        /* \"#utility.yul\":2386:2464   */\n      swap3\n      pop\n        /* \"#utility.yul\":2226:2474   */\n      pop\n        /* \"#utility.yul\":2213:2214   */\n      0x01\n        /* \"#utility.yul\":2210:2211   */\n      dup2\n        /* \"#utility.yul\":2206:2215   */\n      add\n        /* \"#utility.yul\":2201:2215   */\n      swap1\n      pop\n        /* \"#utility.yul\":2166:2474   */\n      jump(tag_113)\n    tag_115:\n        /* \"#utility.yul\":2170:2184   */\n      pop\n        /* \"#utility.yul\":2490:2493   */\n      dup6\n        /* \"#utility.yul\":2483:2493   */\n      swap4\n      pop\n        /* \"#utility.yul\":1843:2499   */\n      pop\n      pop\n      pop\n        /* \"#utility.yul\":1703:2499   */\n      swap3\n      swap2\n      pop\n      pop\n      jump\t// out\n        /* \"#utility.yul\":2505:2910   */\n    tag_18:\n        /* \"#utility.yul\":2664:2668   */\n      0x00\n        /* \"#utility.yul\":2702:2704   */\n      0x20\n        /* \"#utility.yul\":2691:2700   */\n      dup3\n        /* \"#utility.yul\":2687:2705   */\n      add\n        /* \"#utility.yul\":2679:2705   */\n      swap1\n      pop\n        /* \"#utility.yul\":2751:2760   */\n      dup2\n        /* \"#utility.yul\":2745:2749   */\n      dup2\n        /* \"#utility.yul\":2741:2761   */\n      sub\n        /* \"#utility.yul\":2737:2738   */\n      0x00\n        /* \"#utility.yul\":2726:2735   */\n      dup4\n        /* \"#utility.yul\":2722:2739   */\n      add\n        /* \"#utility.yul\":2715:2762   */\n      mstore\n        /* \"#utility.yul\":2779:2903   */\n      tag_119\n        /* \"#utility.yul\":2898:2902   */\n      dup2\n        /* \"#utility.yul\":2889:2895   */\n      dup5\n        /* \"#utility.yul\":2779:2903   */\n      tag_70\n      jump\t// in\n    tag_119:\n        /* \"#utility.yul\":2771:2903   */\n      swap1\n      pop\n        /* \"#utility.yul\":2505:2910   */\n      swap3\n      swap2\n      pop\n      pop\n      jump\t// out\n        /* \"#utility.yul\":2916:3085   */\n    tag_71:\n        /* \"#utility.yul\":3000:3011   */\n      0x00\n        /* \"#utility.yul\":3034:3040   */\n      dup3\n        /* \"#utility.yul\":3029:3032   */\n      dup3\n        /* \"#utility.yul\":3022:3041   */\n      mstore\n        /* \"#utility.yul\":3074:3078   */\n      0x20\n        /* \"#utility.yul\":3069:3072   */\n      dup3\n        /* \"#utility.yul\":3065:3079   */\n      add\n        /* \"#utility.yul\":3050:3079   */\n      swap1\n      pop\n        /* \"#utility.yul\":2916:3085   */\n      swap3\n      swap2\n      pop\n      pop\n      jump\t// out\n        /* \"#utility.yul\":3091:3314   */\n    tag_72:\n        /* \"#utility.yul\":3231:3265   */\n      0x4f6e6c79206d616e616765722063616e2063616c6c20746869732066756e6374\n        /* \"#utility.yul\":3227:3228   */\n      0x00\n        /* \"#utility.yul\":3219:3225   */\n      dup3\n        /* \"#utility.yul\":3215:3229   */\n      add\n        /* \"#utility.yul\":3208:3266   */\n      mstore\n        /* \"#utility.yul\":3300:3306   */\n      0x696f6e2000000000000000000000000000000000000000000000000000000000\n        /* \"#utility.yul\":3295:3297   */\n      0x20\n        /* \"#utility.yul\":3287:3293   */\n      dup3\n        /* \"#utility.yul\":3283:3298   */\n      add\n        /* \"#utility.yul\":3276:3307   */\n      mstore\n        /* \"#utility.yul\":3091:3314   */\n      pop\n      jump\t// out\n        /* \"#utility.yul\":3320:3686   */\n    tag_73:\n        /* \"#utility.yul\":3462:3465   */\n      0x00\n        /* \"#utility.yul\":3483:3550   */\n      tag_123\n        /* \"#utility.yul\":3547:3549   */\n      0x24\n        /* \"#utility.yul\":3542:3545   */\n      dup4\n        /* \"#utility.yul\":3483:3550   */\n      tag_71\n      jump\t// in\n    tag_123:\n        /* \"#utility.yul\":3476:3550   */\n      swap2\n      pop\n        /* \"#utility.yul\":3559:3652   */\n      tag_124\n        /* \"#utility.yul\":3648:3651   */\n      dup3\n        /* \"#utility.yul\":3559:3652   */\n      tag_72\n      jump\t// in\n    tag_124:\n        /* \"#utility.yul\":3677:3679   */\n      0x40\n        /* \"#utility.yul\":3672:3675   */\n      dup3\n        /* \"#utility.yul\":3668:3680   */\n      add\n        /* \"#utility.yul\":3661:3680   */\n      swap1\n      pop\n        /* \"#utility.yul\":3320:3686   */\n      swap2\n      swap1\n      pop\n      jump\t// out\n        /* \"#utility.yul\":3692:4111   */\n    tag_24:\n        /* \"#utility.yul\":3858:3862   */\n      0x00\n        /* \"#utility.yul\":3896:3898   */\n      0x20\n        /* \"#utility.yul\":3885:3894   */\n      dup3\n        /* \"#utility.yul\":3881:3899   */\n      add\n        /* \"#utility.yul\":3873:3899   */\n      swap1\n      pop\n        /* \"#utility.yul\":3945:3954   */\n      dup2\n        /* \"#utility.yul\":3939:3943   */\n      dup2\n        /* \"#utility.yul\":3935:3955   */\n      sub\n        /* \"#utility.yul\":3931:3932   */\n      0x00\n        /* \"#utility.yul\":3920:3929   */\n      dup4\n        /* \"#utility.yul\":3916:3933   */\n      add\n        /* \"#utility.yul\":3909:3956   */\n      mstore\n        /* \"#utility.yul\":3973:4104   */\n      tag_126\n        /* \"#utility.yul\":4099:4103   */\n      dup2\n        /* \"#utility.yul\":3973:4104   */\n      tag_73\n      jump\t// in\n    tag_126:\n        /* \"#utility.yul\":3965:4104   */\n      swap1\n      pop\n        /* \"#utility.yul\":3692:4111   */\n      swap2\n      swap1\n      pop\n      jump\t// out\n        /* \"#utility.yul\":4117:4194   */\n    tag_74:\n        /* \"#utility.yul\":4154:4161   */\n      0x00\n        /* \"#utility.yul\":4183:4188   */\n      dup2\n        /* \"#utility.yul\":4172:4188   */\n      swap1\n      pop\n        /* \"#utility.yul\":4117:4194   */\n      swap2\n      swap1\n      pop\n      jump\t// out\n        /* \"#utility.yul\":4200:4380   */\n    tag_75:\n        /* \"#utility.yul\":4248:4325   */\n      0x4e487b7100000000000000000000000000000000000000000000000000000000\n        /* \"#utility.yul\":4245:4246   */\n      0x00\n        /* \"#utility.yul\":4238:4326   */\n      mstore\n        /* \"#utility.yul\":4345:4349   */\n      0x12\n        /* \"#utility.yul\":4342:4343   */\n      0x04\n        /* \"#utility.yul\":4335:4350   */\n      mstore\n        /* \"#utility.yul\":4369:4373   */\n      0x24\n        /* \"#utility.yul\":4366:4367   */\n      0x00\n        /* \"#utility.yul\":4359:4374   */\n      revert\n        /* \"#utility.yul\":4386:4562   */\n    tag_29:\n        /* \"#utility.yul\":4418:4419   */\n      0x00\n        /* \"#utility.yul\":4435:4455   */\n      tag_130\n        /* \"#utility.yul\":4453:4454   */\n      dup3\n        /* \"#utility.yul\":4435:4455   */\n      tag_74\n      jump\t// in\n    tag_130:\n        /* \"#utility.yul\":4430:4455   */\n      swap2\n      pop\n        /* \"#utility.yul\":4469:4489   */\n      tag_131\n        /* \"#utility.yul\":4487:4488   */\n      dup4\n        /* \"#utility.yul\":4469:4489   */\n      tag_74\n      jump\t// in\n    tag_131:\n        /* \"#utility.yul\":4464:4489   */\n      swap3\n      pop\n        /* \"#utility.yul\":4508:4509   */\n      dup3\n        /* \"#utility.yul\":4498:4533   */\n      tag_132\n      jumpi\n        /* \"#utility.yul\":4513:4531   */\n      tag_133\n      tag_75\n      jump\t// in\n    tag_133:\n        /* \"#utility.yul\":4498:4533   */\n    tag_132:\n        /* \"#utility.yul\":4554:4555   */\n      dup3\n        /* \"#utility.yul\":4551:4552   */\n      dup3\n        /* \"#utility.yul\":4547:4556   */\n      mod\n        /* \"#utility.yul\":4542:4556   */\n      swap1\n      pop\n        /* \"#utility.yul\":4386:4562   */\n      swap3\n      swap2\n      pop\n      pop\n      jump\t// out\n        /* \"#utility.yul\":4568:4748   */\n    tag_32:\n        /* \"#utility.yul\":4616:4693   */\n      0x4e487b7100000000000000000000000000000000000000000000000000000000\n        /* \"#utility.yul\":4613:4614   */\n      0x00\n        /* \"#utility.yul\":4606:4694   */\n      mstore\n        /* \"#utility.yul\":4713:4717   */\n      0x32\n        /* \"#utility.yul\":4710:4711   */\n      0x04\n        /* \"#utility.yul\":4703:4718   */\n      mstore\n        /* \"#utility.yul\":4737:4741   */\n      0x24\n        /* \"#utility.yul\":4734:4735   */\n      0x00\n        /* \"#utility.yul\":4727:4742   */\n      revert\n        /* \"#utility.yul\":4754:4934   */\n    tag_38:\n        /* \"#utility.yul\":4802:4879   */\n      0x4e487b7100000000000000000000000000000000000000000000000000000000\n        /* \"#utility.yul\":4799:4800   */\n      0x00\n        /* \"#utility.yul\":4792:4880   */\n      mstore\n        /* \"#utility.yul\":4899:4903   */\n      0x41\n        /* \"#utility.yul\":4896:4897   */\n      0x04\n        /* \"#utility.yul\":4889:4904   */\n      mstore\n        /* \"#utility.yul\":4923:4927   */\n      0x24\n        /* \"#utility.yul\":4920:4921   */\n      0x00\n        /* \"#utility.yul\":4913:4928   */\n      revert\n        /* \"#utility.yul\":4940:5175   */\n    tag_76:\n        /* \"#utility.yul\":5080:5114   */\n      0x6174206c6561737420302e312065746865722073686f756c642062652073656e\n        /* \"#utility.yul\":5076:5077   */\n      0x00\n        /* \"#utility.yul\":5068:5074   */\n      dup3\n        /* \"#utility.yul\":5064:5078   */\n      add\n        /* \"#utility.yul\":5057:5115   */\n      mstore\n        /* \"#utility.yul\":5149:5167   */\n      0x7420746f20706172746963697061746500000000000000000000000000000000\n        /* \"#utility.yul\":5144:5146   */\n      0x20\n        /* \"#utility.yul\":5136:5142   */\n      dup3\n        /* \"#utility.yul\":5132:5147   */\n      add\n        /* \"#utility.yul\":5125:5168   */\n      mstore\n        /* \"#utility.yul\":4940:5175   */\n      pop\n      jump\t// out\n        /* \"#utility.yul\":5181:5547   */\n    tag_77:\n        /* \"#utility.yul\":5323:5326   */\n      0x00\n        /* \"#utility.yul\":5344:5411   */\n      tag_138\n        /* \"#utility.yul\":5408:5410   */\n      0x30\n        /* \"#utility.yul\":5403:5406   */\n      dup4\n        /* \"#utility.yul\":5344:5411   */\n      tag_71\n      jump\t// in\n    tag_138:\n        /* \"#utility.yul\":5337:5411   */\n      swap2\n      pop\n        /* \"#utility.yul\":5420:5513   */\n      tag_139\n        /* \"#utility.yul\":5509:5512   */\n      dup3\n        /* \"#utility.yul\":5420:5513   */\n      tag_76\n      jump\t// in\n    tag_139:\n        /* \"#utility.yul\":5538:5540   */\n      0x40\n        /* \"#utility.yul\":5533:5536   */\n      dup3\n        /* \"#utility.yul\":5529:5541   */\n      add\n        /* \"#utility.yul\":5522:5541   */\n      swap1\n      pop\n        /* \"#utility.yul\":5181:5547   */\n      swap2\n      swap1\n      pop\n      jump\t// out\n        /* \"#utility.yul\":5553:5972   */\n    tag_48:\n        /* \"#utility.yul\":5719:5723   */\n      0x00\n        /* \"#utility.yul\":5757:5759   */\n      0x20\n        /* \"#utility.yul\":5746:5755   */\n      dup3\n        /* \"#utility.yul\":5742:5760   */\n      add\n        /* \"#utility.yul\":5734:5760   */\n      swap1\n      pop\n        /* \"#utility.yul\":5806:5815   */\n      dup2\n        /* \"#utility.yul\":5800:5804   */\n      dup2\n        /* \"#utility.yul\":5796:5816   */\n      sub\n        /* \"#utility.yul\":5792:5793   */\n      0x00\n        /* \"#utility.yul\":5781:5790   */\n      dup4\n        /* \"#utility.yul\":5777:5794   */\n      add\n        /* \"#utility.yul\":5770:5817   */\n      mstore\n        /* \"#utility.yul\":5834:5965   */\n      tag_141\n        /* \"#utility.yul\":5960:5964   */\n      dup2\n        /* \"#utility.yul\":5834:5965   */\n      tag_77\n      jump\t// in\n    tag_141:\n        /* \"#utility.yul\":5826:5965   */\n      swap1\n      pop\n        /* \"#utility.yul\":5553:5972   */\n      swap2\n      swap1\n      pop\n      jump\t// out\n        /* \"#utility.yul\":5978:6057   */\n    tag_78:\n        /* \"#utility.yul\":6017:6024   */\n      0x00\n        /* \"#utility.yul\":6046:6051   */\n      dup2\n        /* \"#utility.yul\":6035:6051   */\n      swap1\n      pop\n        /* \"#utility.yul\":5978:6057   */\n      swap2\n      swap1\n      pop\n      jump\t// out\n        /* \"#utility.yul\":6063:6220   */\n    tag_79:\n        /* \"#utility.yul\":6168:6213   */\n      tag_144\n        /* \"#utility.yul\":6188:6212   */\n      tag_145\n        /* \"#utility.yul\":6206:6211   */\n      dup3\n        /* \"#utility.yul\":6188:6212   */\n      tag_74\n      jump\t// in\n    tag_145:\n        /* \"#utility.yul\":6168:6213   */\n      tag_78\n      jump\t// in\n    tag_144:\n        /* \"#utility.yul\":6163:6166   */\n      dup3\n        /* \"#utility.yul\":6156:6214   */\n      mstore\n        /* \"#utility.yul\":6063:6220   */\n      pop\n      pop\n      jump\t// out\n        /* \"#utility.yul\":6226:6345   */\n    tag_80:\n        /* \"#utility.yul\":6298:6304   */\n      0x00\n        /* \"#utility.yul\":6332:6337   */\n      dup2\n        /* \"#utility.yul\":6326:6338   */\n      sload\n        /* \"#utility.yul\":6316:6338   */\n      swap1\n      pop\n        /* \"#utility.yul\":6226:6345   */\n      swap2\n      swap1\n      pop\n      jump\t// out\n        /* \"#utility.yul\":6351:6522   */\n    tag_81:\n        /* \"#utility.yul\":6476:6487   */\n      0x00\n        /* \"#utility.yul\":6513:6516   */\n      dup2\n        /* \"#utility.yul\":6498:6516   */\n      swap1\n      pop\n        /* \"#utility.yul\":6351:6522   */\n      swap3\n      swap2\n      pop\n      pop\n      jump\t// out\n        /* \"#utility.yul\":6528:6692   */\n    tag_82:\n        /* \"#utility.yul\":6600:6604   */\n      0x00\n        /* \"#utility.yul\":6623:6626   */\n      dup2\n        /* \"#utility.yul\":6615:6626   */\n      swap1\n      pop\n        /* \"#utility.yul\":6646:6649   */\n      dup2\n        /* \"#utility.yul\":6643:6644   */\n      0x00\n        /* \"#utility.yul\":6636:6650   */\n      mstore\n        /* \"#utility.yul\":6680:6684   */\n      0x20\n        /* \"#utility.yul\":6677:6678   */\n      0x00\n        /* \"#utility.yul\":6667:6685   */\n      keccak256\n        /* \"#utility.yul\":6659:6685   */\n      swap1\n      pop\n        /* \"#utility.yul\":6528:6692   */\n      swap2\n      swap1\n      pop\n      jump\t// out\n        /* \"#utility.yul\":6698:6838   */\n    tag_83:\n        /* \"#utility.yul\":6799:6831   */\n      tag_150\n        /* \"#utility.yul\":6825:6830   */\n      dup2\n        /* \"#utility.yul\":6799:6831   */\n      tag_66\n      jump\t// in\n    tag_150:\n        /* \"#utility.yul\":6794:6797   */\n      dup3\n        /* \"#utility.yul\":6787:6832   */\n      mstore\n        /* \"#utility.yul\":6698:6838   */\n      pop\n      pop\n      jump\t// out\n        /* \"#utility.yul\":6844:7071   */\n    tag_84:\n        /* \"#utility.yul\":6937:6947   */\n      0x00\n        /* \"#utility.yul\":6958:7028   */\n      tag_152\n        /* \"#utility.yul\":7024:7027   */\n      dup4\n        /* \"#utility.yul\":7016:7022   */\n      dup4\n        /* \"#utility.yul\":6958:7028   */\n      tag_83\n      jump\t// in\n    tag_152:\n        /* \"#utility.yul\":7060:7064   */\n      0x20\n        /* \"#utility.yul\":7055:7058   */\n      dup4\n        /* \"#utility.yul\":7051:7065   */\n      add\n        /* \"#utility.yul\":7037:7065   */\n      swap1\n      pop\n        /* \"#utility.yul\":6844:7071   */\n      swap3\n      swap2\n      pop\n      pop\n      jump\t// out\n        /* \"#utility.yul\":7077:7179   */\n    tag_85:\n        /* \"#utility.yul\":7119:7127   */\n      0x00\n        /* \"#utility.yul\":7166:7171   */\n      dup2\n        /* \"#utility.yul\":7163:7164   */\n      0x00\n        /* \"#utility.yul\":7159:7172   */\n      shr\n        /* \"#utility.yul\":7138:7172   */\n      swap1\n      pop\n        /* \"#utility.yul\":7077:7179   */\n      swap2\n      swap1\n      pop\n      jump\t// out\n        /* \"#utility.yul\":7185:7332   */\n    tag_86:\n        /* \"#utility.yul\":7243:7250   */\n      0x00\n        /* \"#utility.yul\":7283:7325   */\n      0xffffffffffffffffffffffffffffffffffffffff\n        /* \"#utility.yul\":7276:7281   */\n      dup3\n        /* \"#utility.yul\":7272:7326   */\n      and\n        /* \"#utility.yul\":7261:7326   */\n      swap1\n      pop\n        /* \"#utility.yul\":7185:7332   */\n      swap2\n      swap1\n      pop\n      jump\t// out\n        /* \"#utility.yul\":7338:7520   */\n    tag_87:\n        /* \"#utility.yul\":7415:7420   */\n      0x00\n        /* \"#utility.yul\":7440:7514   */\n      tag_156\n        /* \"#utility.yul\":7479:7513   */\n      tag_157\n        /* \"#utility.yul\":7502:7512   */\n      dup4\n        /* \"#utility.yul\":7479:7513   */\n      tag_85\n      jump\t// in\n    tag_157:\n        /* \"#utility.yul\":7440:7514   */\n      tag_86\n      jump\t// in\n    tag_156:\n        /* \"#utility.yul\":7431:7514   */\n      swap1\n      pop\n        /* \"#utility.yul\":7338:7520   */\n      swap2\n      swap1\n      pop\n      jump\t// out\n        /* \"#utility.yul\":7526:7686   */\n    tag_88:\n        /* \"#utility.yul\":7589:7594   */\n      0x00\n        /* \"#utility.yul\":7614:7679   */\n      tag_159\n        /* \"#utility.yul\":7673:7677   */\n      dup3\n        /* \"#utility.yul\":7667:7678   */\n      sload\n        /* \"#utility.yul\":7614:7679   */\n      tag_87\n      jump\t// in\n    tag_159:\n        /* \"#utility.yul\":7605:7679   */\n      swap1\n      pop\n        /* \"#utility.yul\":7526:7686   */\n      swap2\n      swap1\n      pop\n      jump\t// out\n        /* \"#utility.yul\":7692:7810   */\n    tag_89:\n        /* \"#utility.yul\":7767:7771   */\n      0x00\n        /* \"#utility.yul\":7799:7803   */\n      0x01\n        /* \"#utility.yul\":7794:7797   */\n      dup3\n        /* \"#utility.yul\":7790:7804   */\n      add\n        /* \"#utility.yul\":7782:7804   */\n      swap1\n      pop\n        /* \"#utility.yul\":7692:7810   */\n      swap2\n      swap1\n      pop\n      jump\t// out\n        /* \"#utility.yul\":7862:8729   */\n    tag_90:\n        /* \"#utility.yul\":8012:8015   */\n      0x00\n        /* \"#utility.yul\":8041:8100   */\n      tag_162\n        /* \"#utility.yul\":8094:8099   */\n      dup3\n        /* \"#utility.yul\":8041:8100   */\n      tag_80\n      jump\t// in\n    tag_162:\n        /* \"#utility.yul\":8116:8228   */\n      tag_163\n        /* \"#utility.yul\":8221:8227   */\n      dup2\n        /* \"#utility.yul\":8216:8219   */\n      dup6\n        /* \"#utility.yul\":8116:8228   */\n      tag_81\n      jump\t// in\n    tag_163:\n        /* \"#utility.yul\":8109:8228   */\n      swap4\n      pop\n        /* \"#utility.yul\":8252:8313   */\n      tag_164\n        /* \"#utility.yul\":8307:8312   */\n      dup4\n        /* \"#utility.yul\":8252:8313   */\n      tag_82\n      jump\t// in\n    tag_164:\n        /* \"#utility.yul\":8336:8343   */\n      dup1\n        /* \"#utility.yul\":8367:8368   */\n      0x00\n        /* \"#utility.yul\":8352:8704   */\n    tag_165:\n        /* \"#utility.yul\":8377:8383   */\n      dup4\n        /* \"#utility.yul\":8374:8375   */\n      dup2\n        /* \"#utility.yul\":8371:8384   */\n      lt\n        /* \"#utility.yul\":8352:8704   */\n      iszero\n      tag_167\n      jumpi\n        /* \"#utility.yul\":8447:8499   */\n      tag_168\n        /* \"#utility.yul\":8492:8498   */\n      dup3\n        /* \"#utility.yul\":8447:8499   */\n      tag_88\n      jump\t// in\n    tag_168:\n        /* \"#utility.yul\":8519:8606   */\n      tag_169\n        /* \"#utility.yul\":8602:8605   */\n      dup9\n        /* \"#utility.yul\":8587:8600   */\n      dup3\n        /* \"#utility.yul\":8519:8606   */\n      tag_84\n      jump\t// in\n    tag_169:\n        /* \"#utility.yul\":8512:8606   */\n      swap8\n      pop\n        /* \"#utility.yul\":8629:8694   */\n      tag_170\n        /* \"#utility.yul\":8687:8693   */\n      dup4\n        /* \"#utility.yul\":8629:8694   */\n      tag_89\n      jump\t// in\n    tag_170:\n        /* \"#utility.yul\":8619:8694   */\n      swap3\n      pop\n        /* \"#utility.yul\":8412:8704   */\n      pop\n        /* \"#utility.yul\":8399:8400   */\n      0x01\n        /* \"#utility.yul\":8396:8397   */\n      dup2\n        /* \"#utility.yul\":8392:8401   */\n      add\n        /* \"#utility.yul\":8387:8401   */\n      swap1\n      pop\n        /* \"#utility.yul\":8352:8704   */\n      jump(tag_165)\n    tag_167:\n        /* \"#utility.yul\":8356:8370   */\n      pop\n        /* \"#utility.yul\":8720:8723   */\n      dup6\n        /* \"#utility.yul\":8713:8723   */\n      swap4\n      pop\n        /* \"#utility.yul\":8017:8729   */\n      pop\n      pop\n      pop\n        /* \"#utility.yul\":7862:8729   */\n      swap3\n      swap2\n      pop\n      pop\n      jump\t// out\n        /* \"#utility.yul\":8735:9378   */\n    tag_52:\n        /* \"#utility.yul\":8966:8969   */\n      0x00\n        /* \"#utility.yul\":8981:9056   */\n      tag_172\n        /* \"#utility.yul\":9052:9055   */\n      dup3\n        /* \"#utility.yul\":9043:9049   */\n      dup7\n        /* \"#utility.yul\":8981:9056   */\n      tag_79\n      jump\t// in\n    tag_172:\n        /* \"#utility.yul\":9081:9083   */\n      0x20\n        /* \"#utility.yul\":9076:9079   */\n      dup3\n        /* \"#utility.yul\":9072:9084   */\n      add\n        /* \"#utility.yul\":9065:9084   */\n      swap2\n      pop\n        /* \"#utility.yul\":9094:9169   */\n      tag_173\n        /* \"#utility.yul\":9165:9168   */\n      dup3\n        /* \"#utility.yul\":9156:9162   */\n      dup6\n        /* \"#utility.yul\":9094:9169   */\n      tag_79\n      jump\t// in\n    tag_173:\n        /* \"#utility.yul\":9194:9196   */\n      0x20\n        /* \"#utility.yul\":9189:9192   */\n      dup3\n        /* \"#utility.yul\":9185:9197   */\n      add\n        /* \"#utility.yul\":9178:9197   */\n      swap2\n      pop\n        /* \"#utility.yul\":9214:9352   */\n      tag_174\n        /* \"#utility.yul\":9348:9351   */\n      dup3\n        /* \"#utility.yul\":9339:9345   */\n      dup5\n        /* \"#utility.yul\":9214:9352   */\n      tag_90\n      jump\t// in\n    tag_174:\n        /* \"#utility.yul\":9207:9352   */\n      swap2\n      pop\n        /* \"#utility.yul\":9369:9372   */\n      dup2\n        /* \"#utility.yul\":9362:9372   */\n      swap1\n      pop\n        /* \"#utility.yul\":8735:9378   */\n      swap5\n      swap4\n      pop\n      pop\n      pop\n      pop\n      jump\t// out\n\n    auxdata: 0xa264697066735822122042d6881a13fe64e98b06187b9205903eb90785cace9d0b612901db1192dba3de64736f6c634300080e0033\n}\n",
    "bytecode": {
      "linkReferences": {},
      "object": "608060405234801561001057600080fd5b50336000806101000a81548173ffffffffffffffffffffffffffffffffffffffff021916908373ffffffffffffffffffffffffffffffffffffffff1602179055506109a0806100606000396000f3fe60806040526004361061003f5760003560e01c8063481c6a75146100445780635d495aea1461006f5780638b5b9ccc14610086578063e97dcb62146100b1575b600080fd5b34801561005057600080fd5b506100596100bb565b60405161006691906104e8565b60405180910390f35b34801561007b57600080fd5b506100846100df565b005b34801561009257600080fd5b5061009b61028e565b6040516100a891906105d3565b60405180910390f35b6100b961031c565b005b60008054906101000a900473ffffffffffffffffffffffffffffffffffffffff1681565b60008054906101000a900473ffffffffffffffffffffffffffffffffffffffff1673ffffffffffffffffffffffffffffffffffffffff163373ffffffffffffffffffffffffffffffffffffffff161461016d576040517f08c379a000000000000000000000000000000000000000000000000000000000815260040161016490610678565b60405180910390fd5b600030905060006001805490506101826103ca565b61018c91906106d1565b9050600181815481106101a2576101a1610702565b5b9060005260206000200160009054906101000a900473ffffffffffffffffffffffffffffffffffffffff1673ffffffffffffffffffffffffffffffffffffffff166108fc8373ffffffffffffffffffffffffffffffffffffffff16319081150290604051600060405180830381858888f19350505050158015610229573d6000803e3d6000fd5b50600067ffffffffffffffff81111561024557610244610731565b5b6040519080825280602002602001820160405280156102735781602001602082028036833780820191505090505b5060019080519060200190610289929190610400565b505050565b6060600180548060200260200160405190810160405280929190818152602001828054801561031257602002820191906000526020600020905b8160009054906101000a900473ffffffffffffffffffffffffffffffffffffffff1673ffffffffffffffffffffffffffffffffffffffff16815260200190600101908083116102c8575b5050505050905090565b662386f26fc100003411610365576040517f08c379a000000000000000000000000000000000000000000000000000000000815260040161035c906107d2565b60405180910390fd5b6001339080600181540180825580915050600190039060005260206000200160009091909190916101000a81548173ffffffffffffffffffffffffffffffffffffffff021916908373ffffffffffffffffffffffffffffffffffffffff160217905550565b6000444360016040516020016103e293929190610931565b6040516020818303038152906040528051906020012060001c905090565b828054828255906000526020600020908101928215610479579160200282015b828111156104785782518260006101000a81548173ffffffffffffffffffffffffffffffffffffffff021916908373ffffffffffffffffffffffffffffffffffffffff16021790555091602001919060010190610420565b5b509050610486919061048a565b5090565b5b808211156104a357600081600090555060010161048b565b5090565b600073ffffffffffffffffffffffffffffffffffffffff82169050919050565b60006104d2826104a7565b9050919050565b6104e2816104c7565b82525050565b60006020820190506104fd60008301846104d9565b92915050565b600081519050919050565b600082825260208201905092915050565b6000819050602082019050919050565b600061053a826104a7565b9050919050565b61054a8161052f565b82525050565b600061055c8383610541565b60208301905092915050565b6000602082019050919050565b600061058082610503565b61058a818561050e565b93506105958361051f565b8060005b838110156105c65781516105ad8882610550565b97506105b883610568565b925050600181019050610599565b5085935050505092915050565b600060208201905081810360008301526105ed8184610575565b905092915050565b600082825260208201905092915050565b7f4f6e6c79206d616e616765722063616e2063616c6c20746869732066756e637460008201527f696f6e2000000000000000000000000000000000000000000000000000000000602082015250565b60006106626024836105f5565b915061066d82610606565b604082019050919050565b6000602082019050818103600083015261069181610655565b9050919050565b6000819050919050565b7f4e487b7100000000000000000000000000000000000000000000000000000000600052601260045260246000fd5b60006106dc82610698565b91506106e783610698565b9250826106f7576106f66106a2565b5b828206905092915050565b7f4e487b7100000000000000000000000000000000000000000000000000000000600052603260045260246000fd5b7f4e487b7100000000000000000000000000000000000000000000000000000000600052604160045260246000fd5b7f6174206c6561737420302e312065746865722073686f756c642062652073656e60008201527f7420746f20706172746963697061746500000000000000000000000000000000602082015250565b60006107bc6030836105f5565b91506107c782610760565b604082019050919050565b600060208201905081810360008301526107eb816107af565b9050919050565b6000819050919050565b61080d61080882610698565b6107f2565b82525050565b600081549050919050565b600081905092915050565b60008190508160005260206000209050919050565b6108478161052f565b82525050565b6000610859838361083e565b60208301905092915050565b60008160001c9050919050565b600073ffffffffffffffffffffffffffffffffffffffff82169050919050565b60006108a56108a083610865565b610872565b9050919050565b60006108b88254610892565b9050919050565b6000600182019050919050565b60006108d782610813565b6108e1818561081e565b93506108ec83610829565b8060005b8381101561092457610901826108ac565b61090b888261084d565b9750610916836108bf565b9250506001810190506108f0565b5085935050505092915050565b600061093d82866107fc565b60208201915061094d82856107fc565b60208201915061095d82846108cc565b915081905094935050505056fea264697066735822122042d6881a13fe64e98b06187b9205903eb90785cace9d0b612901db1192dba3de64736f6c634300080e0033",
      "opcodes": "PUSH1 0x80 PUSH1 0x40 MSTORE CALLVALUE DUP1 ISZERO PUSH2 0x10 JUMPI PUSH1 0x0 DUP1 REVERT JUMPDEST POP CALLER PUSH1 0x0 DUP1 PUSH2 0x100 EXP DUP2 SLOAD DUP2 PUSH20 0xFFFFFFFFFFFFFFFFFFFFFFFFFFFFFFFFFFFFFFFF MUL NOT AND SWAP1 DUP4 PUSH20 0xFFFFFFFFFFFFFFFFFFFFFFFFFFFFFFFFFFFFFFFF AND MUL OR SWAP1 SSTORE POP PUSH2 0x9A0 DUP1 PUSH2 0x60 PUSH1 0x0 CODECOPY PUSH1 0x0 RETURN INVALID PUSH1 0x80 PUSH1 0x40 MSTORE PUSH1 0x4 CALLDATASIZE LT PUSH2 0x3F JUMPI PUSH1 0x0 CALLDATALOAD PUSH1 0xE0 SHR DUP1 PUSH4 0x481C6A75 EQ PUSH2 0x44 JUMPI DUP1 PUSH4 0x5D495AEA EQ PUSH2 0x6F JUMPI DUP1 PUSH4 0x8B5B9CCC EQ PUSH2 0x86 JUMPI DUP1 PUSH4 0xE97DCB62 EQ PUSH2 0xB1 JUMPI JUMPDEST PUSH1 0x0 DUP1 REVERT JUMPDEST CALLVALUE DUP1 ISZERO PUSH2 0x50 JUMPI PUSH1 0x0 DUP1 REVERT JUMPDEST POP PUSH2 0x59 PUSH2 0xBB JUMP JUMPDEST PUSH1 0x40 MLOAD PUSH2 0x66 SWAP2 SWAP1 PUSH2 0x4E8 JUMP JUMPDEST PUSH1 0x40 MLOAD DUP1 SWAP2 SUB SWAP1 RETURN JUMPDEST CALLVALUE DUP1 ISZERO PUSH2 0x7B JUMPI PUSH1 0x0 DUP1 REVERT JUMPDEST POP PUSH2 0x84 PUSH2 0xDF JUMP JUMPDEST STOP JUMPDEST CALLVALUE DUP1 ISZERO PUSH2 0x92 JUMPI PUSH1 0x0 DUP1 REVERT JUMPDEST POP PUSH2 0x9B PUSH2 0x28E JUMP JUMPDEST PUSH1 0x40 MLOAD PUSH2 0xA8 SWAP2 SWAP1 PUSH2 0x5D3 JUMP JUMPDEST PUSH1 0x40 MLOAD DUP1 SWAP2 SUB SWAP1 RETURN JUMPDEST PUSH2 0xB9 PUSH2 0x31C JUMP JUMPDEST STOP JUMPDEST PUSH1 0x0 DUP1 SLOAD SWAP1 PUSH2 0x100 EXP SWAP1 DIV PUSH20 0xFFFFFFFFFFFFFFFFFFFFFFFFFFFFFFFFFFFFFFFF AND DUP2 JUMP JUMPDEST PUSH1 0x0 DUP1 SLOAD SWAP1 PUSH2 0x100 EXP SWAP1 DIV PUSH20 0xFFFFFFFFFFFFFFFFFFFFFFFFFFFFFFFFFFFFFFFF AND PUSH20 0xFFFFFFFFFFFFFFFFFFFFFFFFFFFFFFFFFFFFFFFF AND CALLER PUSH20 0xFFFFFFFFFFFFFFFFFFFFFFFFFFFFFFFFFFFFFFFF AND EQ PUSH2 0x16D JUMPI PUSH1 0x40 MLOAD PUSH32 0x8C379A000000000000000000000000000000000000000000000000000000000 DUP2 MSTORE PUSH1 0x4 ADD PUSH2 0x164 SWAP1 PUSH2 0x678 JUMP JUMPDEST PUSH1 0x40 MLOAD DUP1 SWAP2 SUB SWAP1 REVERT JUMPDEST PUSH1 0x0 ADDRESS SWAP1 POP PUSH1 0x0 PUSH1 0x1 DUP1 SLOAD SWAP1 POP PUSH2 0x182 PUSH2 0x3CA JUMP JUMPDEST PUSH2 0x18C SWAP2 SWAP1 PUSH2 0x6D1 JUMP JUMPDEST SWAP1 POP PUSH1 0x1 DUP2 DUP2 SLOAD DUP2 LT PUSH2 0x1A2 JUMPI PUSH2 0x1A1 PUSH2 0x702 JUMP JUMPDEST JUMPDEST SWAP1 PUSH1 0x0 MSTORE PUSH1 0x20 PUSH1 0x0 KECCAK256 ADD PUSH1 0x0 SWAP1 SLOAD SWAP1 PUSH2 0x100 EXP SWAP1 DIV PUSH20 0xFFFFFFFFFFFFFFFFFFFFFFFFFFFFFFFFFFFFFFFF AND PUSH20 0xFFFFFFFFFFFFFFFFFFFFFFFFFFFFFFFFFFFFFFFF AND PUSH2 0x8FC DUP4 PUSH20 0xFFFFFFFFFFFFFFFFFFFFFFFFFFFFFFFFFFFFFFFF AND BALANCE SWAP1 DUP2 ISZERO MUL SWAP1 PUSH1 0x40 MLOAD PUSH1 0x0 PUSH1 0x40 MLOAD DUP1 DUP4 SUB DUP2 DUP6 DUP9 DUP9 CALL SWAP4 POP POP POP POP ISZERO DUP1 ISZERO PUSH2 0x229 JUMPI RETURNDATASIZE PUSH1 0x0 DUP1 RETURNDATACOPY RETURNDATASIZE PUSH1 0x0 REVERT JUMPDEST POP PUSH1 0x0 PUSH8 0xFFFFFFFFFFFFFFFF DUP2 GT ISZERO PUSH2 0x245 JUMPI PUSH2 0x244 PUSH2 0x731 JUMP JUMPDEST JUMPDEST PUSH1 0x40 MLOAD SWAP1 DUP1 DUP3 MSTORE DUP1 PUSH1 0x20 MUL PUSH1 0x20 ADD DUP3 ADD PUSH1 0x40 MSTORE DUP1 ISZERO PUSH2 0x273 JUMPI DUP2 PUSH1 0x20 ADD PUSH1 0x20 DUP3 MUL DUP1 CALLDATASIZE DUP4 CALLDATACOPY DUP1 DUP3 ADD SWAP2 POP POP SWAP1 POP JUMPDEST POP PUSH1 0x1 SWAP1 DUP1 MLOAD SWAP1 PUSH1 0x20 ADD SWAP1 PUSH2 0x289 SWAP3 SWAP2 SWAP1 PUSH2 0x400 JUMP JUMPDEST POP POP POP JUMP JUMPDEST PUSH1 0x60 PUSH1 0x1 DUP1 SLOAD DUP1 PUSH1 0x20 MUL PUSH1 0x20 ADD PUSH1 0x40 MLOAD SWAP1 DUP2 ADD PUSH1 0x40 MSTORE DUP1 SWAP3 SWAP2 SWAP1 DUP2 DUP2 MSTORE PUSH1 0x20 ADD DUP3 DUP1 SLOAD DUP1 ISZERO PUSH2 0x312 JUMPI PUSH1 0x20 MUL DUP3 ADD SWAP2 SWAP1 PUSH1 0x0 MSTORE PUSH1 0x20 PUSH1 0x0 KECCAK256 SWAP1 JUMPDEST DUP2 PUSH1 0x0 SWAP1 SLOAD SWAP1 PUSH2 0x100 EXP SWAP1 DIV PUSH20 0xFFFFFFFFFFFFFFFFFFFFFFFFFFFFFFFFFFFFFFFF AND PUSH20 0xFFFFFFFFFFFFFFFFFFFFFFFFFFFFFFFFFFFFFFFF AND DUP2 MSTORE PUSH1 0x20 ADD SWAP1 PUSH1 0x1 ADD SWAP1 DUP1 DUP4 GT PUSH2 0x2C8 JUMPI JUMPDEST POP POP POP POP POP SWAP1 POP SWAP1 JUMP JUMPDEST PUSH7 0x2386F26FC10000 CALLVALUE GT PUSH2 0x365 JUMPI PUSH1 0x40 MLOAD PUSH32 0x8C379A000000000000000000000000000000000000000000000000000000000 DUP2 MSTORE PUSH1 0x4 ADD PUSH2 0x35C SWAP1 PUSH2 0x7D2 JUMP JUMPDEST PUSH1 0x40 MLOAD DUP1 SWAP2 SUB SWAP1 REVERT JUMPDEST PUSH1 0x1 CALLER SWAP1 DUP1 PUSH1 0x1 DUP2 SLOAD ADD DUP1 DUP3 SSTORE DUP1 SWAP2 POP POP PUSH1 0x1 SWAP1 SUB SWAP1 PUSH1 0x0 MSTORE PUSH1 0x20 PUSH1 0x0 KECCAK256 ADD PUSH1 0x0 SWAP1 SWAP2 SWAP1 SWAP2 SWAP1 SWAP2 PUSH2 0x100 EXP DUP2 SLOAD DUP2 PUSH20 0xFFFFFFFFFFFFFFFFFFFFFFFFFFFFFFFFFFFFFFFF MUL NOT AND SWAP1 DUP4 PUSH20 0xFFFFFFFFFFFFFFFFFFFFFFFFFFFFFFFFFFFFFFFF AND MUL OR SWAP1 SSTORE POP JUMP JUMPDEST PUSH1 0x0 DIFFICULTY NUMBER PUSH1 0x1 PUSH1 0x40 MLOAD PUSH1 0x20 ADD PUSH2 0x3E2 SWAP4 SWAP3 SWAP2 SWAP1 PUSH2 0x931 JUMP JUMPDEST PUSH1 0x40 MLOAD PUSH1 0x20 DUP2 DUP4 SUB SUB DUP2 MSTORE SWAP1 PUSH1 0x40 MSTORE DUP1 MLOAD SWAP1 PUSH1 0x20 ADD KECCAK256 PUSH1 0x0 SHR SWAP1 POP SWAP1 JUMP JUMPDEST DUP3 DUP1 SLOAD DUP3 DUP3 SSTORE SWAP1 PUSH1 0x0 MSTORE PUSH1 0x20 PUSH1 0x0 KECCAK256 SWAP1 DUP2 ADD SWAP3 DUP3 ISZERO PUSH2 0x479 JUMPI SWAP2 PUSH1 0x20 MUL DUP3 ADD JUMPDEST DUP3 DUP2 GT ISZERO PUSH2 0x478 JUMPI DUP3 MLOAD DUP3 PUSH1 0x0 PUSH2 0x100 EXP DUP2 SLOAD DUP2 PUSH20 0xFFFFFFFFFFFFFFFFFFFFFFFFFFFFFFFFFFFFFFFF MUL NOT AND SWAP1 DUP4 PUSH20 0xFFFFFFFFFFFFFFFFFFFFFFFFFFFFFFFFFFFFFFFF AND MUL OR SWAP1 SSTORE POP SWAP2 PUSH1 0x20 ADD SWAP2 SWAP1 PUSH1 0x1 ADD SWAP1 PUSH2 0x420 JUMP JUMPDEST JUMPDEST POP SWAP1 POP PUSH2 0x486 SWAP2 SWAP1 PUSH2 0x48A JUMP JUMPDEST POP SWAP1 JUMP JUMPDEST JUMPDEST DUP1 DUP3 GT ISZERO PUSH2 0x4A3 JUMPI PUSH1 0x0 DUP2 PUSH1 0x0 SWAP1 SSTORE POP PUSH1 0x1 ADD PUSH2 0x48B JUMP JUMPDEST POP SWAP1 JUMP JUMPDEST PUSH1 0x0 PUSH20 0xFFFFFFFFFFFFFFFFFFFFFFFFFFFFFFFFFFFFFFFF DUP3 AND SWAP1 POP SWAP2 SWAP1 POP JUMP JUMPDEST PUSH1 0x0 PUSH2 0x4D2 DUP3 PUSH2 0x4A7 JUMP JUMPDEST SWAP1 POP SWAP2 SWAP1 POP JUMP JUMPDEST PUSH2 0x4E2 DUP2 PUSH2 0x4C7 JUMP JUMPDEST DUP3 MSTORE POP POP JUMP JUMPDEST PUSH1 0x0 PUSH1 0x20 DUP3 ADD SWAP1 POP PUSH2 0x4FD PUSH1 0x0 DUP4 ADD DUP5 PUSH2 0x4D9 JUMP JUMPDEST SWAP3 SWAP2 POP POP JUMP JUMPDEST PUSH1 0x0 DUP2 MLOAD SWAP1 POP SWAP2 SWAP1 POP JUMP JUMPDEST PUSH1 0x0 DUP3 DUP3 MSTORE PUSH1 0x20 DUP3 ADD SWAP1 POP SWAP3 SWAP2 POP POP JUMP JUMPDEST PUSH1 0x0 DUP2 SWAP1 POP PUSH1 0x20 DUP3 ADD SWAP1 POP SWAP2 SWAP1 POP JUMP JUMPDEST PUSH1 0x0 PUSH2 0x53A DUP3 PUSH2 0x4A7 JUMP JUMPDEST SWAP1 POP SWAP2 SWAP1 POP JUMP JUMPDEST PUSH2 0x54A DUP2 PUSH2 0x52F JUMP JUMPDEST DUP3 MSTORE POP POP JUMP JUMPDEST PUSH1 0x0 PUSH2 0x55C DUP4 DUP4 PUSH2 0x541 JUMP JUMPDEST PUSH1 0x20 DUP4 ADD SWAP1 POP SWAP3 SWAP2 POP POP JUMP JUMPDEST PUSH1 0x0 PUSH1 0x20 DUP3 ADD SWAP1 POP SWAP2 SWAP1 POP JUMP JUMPDEST PUSH1 0x0 PUSH2 0x580 DUP3 PUSH2 0x503 JUMP JUMPDEST PUSH2 0x58A DUP2 DUP6 PUSH2 0x50E JUMP JUMPDEST SWAP4 POP PUSH2 0x595 DUP4 PUSH2 0x51F JUMP JUMPDEST DUP1 PUSH1 0x0 JUMPDEST DUP4 DUP2 LT ISZERO PUSH2 0x5C6 JUMPI DUP2 MLOAD PUSH2 0x5AD DUP9 DUP3 PUSH2 0x550 JUMP JUMPDEST SWAP8 POP PUSH2 0x5B8 DUP4 PUSH2 0x568 JUMP JUMPDEST SWAP3 POP POP PUSH1 0x1 DUP2 ADD SWAP1 POP PUSH2 0x599 JUMP JUMPDEST POP DUP6 SWAP4 POP POP POP POP SWAP3 SWAP2 POP POP JUMP JUMPDEST PUSH1 0x0 PUSH1 0x20 DUP3 ADD SWAP1 POP DUP2 DUP2 SUB PUSH1 0x0 DUP4 ADD MSTORE PUSH2 0x5ED DUP2 DUP5 PUSH2 0x575 JUMP JUMPDEST SWAP1 POP SWAP3 SWAP2 POP POP JUMP JUMPDEST PUSH1 0x0 DUP3 DUP3 MSTORE PUSH1 0x20 DUP3 ADD SWAP1 POP SWAP3 SWAP2 POP POP JUMP JUMPDEST PUSH32 0x4F6E6C79206D616E616765722063616E2063616C6C20746869732066756E6374 PUSH1 0x0 DUP3 ADD MSTORE PUSH32 0x696F6E2000000000000000000000000000000000000000000000000000000000 PUSH1 0x20 DUP3 ADD MSTORE POP JUMP JUMPDEST PUSH1 0x0 PUSH2 0x662 PUSH1 0x24 DUP4 PUSH2 0x5F5 JUMP JUMPDEST SWAP2 POP PUSH2 0x66D DUP3 PUSH2 0x606 JUMP JUMPDEST PUSH1 0x40 DUP3 ADD SWAP1 POP SWAP2 SWAP1 POP JUMP JUMPDEST PUSH1 0x0 PUSH1 0x20 DUP3 ADD SWAP1 POP DUP2 DUP2 SUB PUSH1 0x0 DUP4 ADD MSTORE PUSH2 0x691 DUP2 PUSH2 0x655 JUMP JUMPDEST SWAP1 POP SWAP2 SWAP1 POP JUMP JUMPDEST PUSH1 0x0 DUP2 SWAP1 POP SWAP2 SWAP1 POP JUMP JUMPDEST PUSH32 0x4E487B7100000000000000000000000000000000000000000000000000000000 PUSH1 0x0 MSTORE PUSH1 0x12 PUSH1 0x4 MSTORE PUSH1 0x24 PUSH1 0x0 REVERT JUMPDEST PUSH1 0x0 PUSH2 0x6DC DUP3 PUSH2 0x698 JUMP JUMPDEST SWAP2 POP PUSH2 0x6E7 DUP4 PUSH2 0x698 JUMP JUMPDEST SWAP3 POP DUP3 PUSH2 0x6F7 JUMPI PUSH2 0x6F6 PUSH2 0x6A2 JUMP JUMPDEST JUMPDEST DUP3 DUP3 MOD SWAP1 POP SWAP3 SWAP2 POP POP JUMP JUMPDEST PUSH32 0x4E487B7100000000000000000000000000000000000000000000000000000000 PUSH1 0x0 MSTORE PUSH1 0x32 PUSH1 0x4 MSTORE PUSH1 0x24 PUSH1 0x0 REVERT JUMPDEST PUSH32 0x4E487B7100000000000000000000000000000000000000000000000000000000 PUSH1 0x0 MSTORE PUSH1 0x41 PUSH1 0x4 MSTORE PUSH1 0x24 PUSH1 0x0 REVERT JUMPDEST PUSH32 0x6174206C6561737420302E312065746865722073686F756C642062652073656E PUSH1 0x0 DUP3 ADD MSTORE PUSH32 0x7420746F20706172746963697061746500000000000000000000000000000000 PUSH1 0x20 DUP3 ADD MSTORE POP JUMP JUMPDEST PUSH1 0x0 PUSH2 0x7BC PUSH1 0x30 DUP4 PUSH2 0x5F5 JUMP JUMPDEST SWAP2 POP PUSH2 0x7C7 DUP3 PUSH2 0x760 JUMP JUMPDEST PUSH1 0x40 DUP3 ADD SWAP1 POP SWAP2 SWAP1 POP JUMP JUMPDEST PUSH1 0x0 PUSH1 0x20 DUP3 ADD SWAP1 POP DUP2 DUP2 SUB PUSH1 0x0 DUP4 ADD MSTORE PUSH2 0x7EB DUP2 PUSH2 0x7AF JUMP JUMPDEST SWAP1 POP SWAP2 SWAP1 POP JUMP JUMPDEST PUSH1 0x0 DUP2 SWAP1 POP SWAP2 SWAP1 POP JUMP JUMPDEST PUSH2 0x80D PUSH2 0x808 DUP3 PUSH2 0x698 JUMP JUMPDEST PUSH2 0x7F2 JUMP JUMPDEST DUP3 MSTORE POP POP JUMP JUMPDEST PUSH1 0x0 DUP2 SLOAD SWAP1 POP SWAP2 SWAP1 POP JUMP JUMPDEST PUSH1 0x0 DUP2 SWAP1 POP SWAP3 SWAP2 POP POP JUMP JUMPDEST PUSH1 0x0 DUP2 SWAP1 POP DUP2 PUSH1 0x0 MSTORE PUSH1 0x20 PUSH1 0x0 KECCAK256 SWAP1 POP SWAP2 SWAP1 POP JUMP JUMPDEST PUSH2 0x847 DUP2 PUSH2 0x52F JUMP JUMPDEST DUP3 MSTORE POP POP JUMP JUMPDEST PUSH1 0x0 PUSH2 0x859 DUP4 DUP4 PUSH2 0x83E JUMP JUMPDEST PUSH1 0x20 DUP4 ADD SWAP1 POP SWAP3 SWAP2 POP POP JUMP JUMPDEST PUSH1 0x0 DUP2 PUSH1 0x0 SHR SWAP1 POP SWAP2 SWAP1 POP JUMP JUMPDEST PUSH1 0x0 PUSH20 0xFFFFFFFFFFFFFFFFFFFFFFFFFFFFFFFFFFFFFFFF DUP3 AND SWAP1 POP SWAP2 SWAP1 POP JUMP JUMPDEST PUSH1 0x0 PUSH2 0x8A5 PUSH2 0x8A0 DUP4 PUSH2 0x865 JUMP JUMPDEST PUSH2 0x872 JUMP JUMPDEST SWAP1 POP SWAP2 SWAP1 POP JUMP JUMPDEST PUSH1 0x0 PUSH2 0x8B8 DUP3 SLOAD PUSH2 0x892 JUMP JUMPDEST SWAP1 POP SWAP2 SWAP1 POP JUMP JUMPDEST PUSH1 0x0 PUSH1 0x1 DUP3 ADD SWAP1 POP SWAP2 SWAP1 POP JUMP JUMPDEST PUSH1 0x0 PUSH2 0x8D7 DUP3 PUSH2 0x813 JUMP JUMPDEST PUSH2 0x8E1 DUP2 DUP6 PUSH2 0x81E JUMP JUMPDEST SWAP4 POP PUSH2 0x8EC DUP4 PUSH2 0x829 JUMP JUMPDEST DUP1 PUSH1 0x0 JUMPDEST DUP4 DUP2 LT ISZERO PUSH2 0x924 JUMPI PUSH2 0x901 DUP3 PUSH2 0x8AC JUMP JUMPDEST PUSH2 0x90B DUP9 DUP3 PUSH2 0x84D JUMP JUMPDEST SWAP8 POP PUSH2 0x916 DUP4 PUSH2 0x8BF JUMP JUMPDEST SWAP3 POP POP PUSH1 0x1 DUP2 ADD SWAP1 POP PUSH2 0x8F0 JUMP JUMPDEST POP DUP6 SWAP4 POP POP POP POP SWAP3 SWAP2 POP POP JUMP JUMPDEST PUSH1 0x0 PUSH2 0x93D DUP3 DUP7 PUSH2 0x7FC JUMP JUMPDEST PUSH1 0x20 DUP3 ADD SWAP2 POP PUSH2 0x94D DUP3 DUP6 PUSH2 0x7FC JUMP JUMPDEST PUSH1 0x20 DUP3 ADD SWAP2 POP PUSH2 0x95D DUP3 DUP5 PUSH2 0x8CC JUMP JUMPDEST SWAP2 POP DUP2 SWAP1 POP SWAP5 SWAP4 POP POP POP POP JUMP INVALID LOG2 PUSH5 0x6970667358 0x22 SLT KECCAK256 TIMESTAMP 0xD6 DUP9 BYTE SGT INVALID PUSH5 0xE98B06187B SWAP3 SDIV SWAP1 RETURNDATACOPY 0xB9 SMOD DUP6 0xCA 0xCE SWAP14 SIGNEXTEND PUSH2 0x2901 0xDB GT SWAP3 0xDB LOG3 0xDE PUSH5 0x736F6C6343 STOP ADDMOD 0xE STOP CALLER "
    },
    "gasEstimates": {
      "creation": {
        "codeDepositCost": "492800",
        "executionCost": "24790",
        "totalCost": "517590"
      },
      "external": {
        "enter()": "48764",
        "getPlayers()": "infinite",
        "manager()": "2489",
        "pickWinner()": "infinite"
      },
      "internal": {
        "random()": "infinite"
      }
    },
    "methodIdentifiers": {
      "enter()": "e97dcb62",
      "getPlayers()": "8b5b9ccc",
      "manager()": "481c6a75",
      "pickWinner()": "5d495aea"
    }
  },
  "storageLayout": {
    "storage": [
      {
        "astId": 3,
        "contract": "Lottery.sol:Lottery",
        "label": "manager",
        "offset": 0,
        "slot": "0",
        "type": "t_address"
      },
      {
        "astId": 6,
        "contract": "Lottery.sol:Lottery",
        "label": "players",
        "offset": 0,
        "slot": "1",
        "type": "t_array(t_address_payable)dyn_storage"
      }
    ],
    "types": {
      "t_address": {
        "encoding": "inplace",
        "label": "address",
        "numberOfBytes": "20"
      },
      "t_address_payable": {
        "encoding": "inplace",
        "label": "address payable",
        "numberOfBytes": "20"
      },
      "t_array(t_address_payable)dyn_storage": {
        "base": "t_address_payable",
        "encoding": "dynamic_array",
        "label": "address payable[]",
        "numberOfBytes": "32"
      }
    }
  },
  "userdoc": {
    "kind": "user",
    "methods": {},
    "version": 1
  }
}